:100000000A128A11D52C00308A000408840A82075B
:1000100000344734613473342034533465346E34DF
:1000200073346F347234203420342034203420343C
:1000300020340034483475346D34693464346934A0
:10004000743479342034533465346E3473346F34FB
:060050007234203400347C
:1009AA0083010A128A11662E01300A128A110A2557
:1009BA000A128A110030F3000030F2000230F1000E
:1009CA005830F0000A128A11A4250A128A11080066
:1009DA00FA0010307A020318F32CF42CFC2C7A0853
:1009EA00803E0A128A110A250A128A11092D7A08EA
:1009FA00EC3EF9007908FA007A08C03E0A128A1118
:100A0A000A250A128A11092D0800F8008312031315
:100A1A00061186117808870086140030F30000302A
:100A2A00F2000030F1003230F0000A128A11A425D7
:100A3A000A128A118312031386100030F300003061
:100A4A00F2000030F1003230F0000A128A11A425B7
:100A5A000A128A110800F800831203130611861578
:100A6A007808870086140030F3000030F200003066
:100A7A00F1000A30F0000A128A11A4250A128A111A
:100A8A008312031386100030F3000030F2000030A6
:100A9A00F1000A30F0000A128A11A4250A128A11FA
:100AAA000800F100652D831203139F121F129F1174
:100ABA006D2D831203139F121F129F156D2D6D2D1D
:100ACA007108003A0319582D013A03195E2D6D2D4C
:100ADA00831203131F15712D1F19742D752D712D76
:100AEA00762D1E08F0007008F20072087C2D0800AE
:100AFA00FB00FA01912D7B0884000A128A11032057
:100B0A000A128A110A128A1130250A128A11013030
:100B1A00F9007908FB07912D7B08031D952DA32D5C
:100B2A007B0884000A128A1103200A128A110038EB
:100B3A00031DA02DA12D802DA32DA32D0800730820
:100B4A00720471047004031DAB2DAC2DAE2DD32D90
:100B5A00D32D0130F4000030F5000030F6000030EB
:100B6A00F7007408F0027508031C750FBD2DBE2D21
:100B7A00F1027608031C760FC32DC42DF202770802
:100B8A00031C770FC92DCA2DF3027308720471046E
:100B9A007004031DD12DD22DAE2DD32D080071085E
:100BAA0070040319D92DDA2D102EF5010314F50D51
:100BBA00EA2D01300310F00DF10DFF3E031DDF2D6C
:100BCA000130F4007408F507EA2DF11FED2DEE2D22
:100BDA00DE2DF02DF02D71087302031DF62D70081D
:100BEA007202031CF92DFA2D012E7008F202710807
:100BFA00031CF303F302012E01300310F10CF00C75
:100C0A00FF3E031D022E0130F502031D0D2E0E2E8E
:100C1A00F02D102E102E7308F101F1077208F00161
:100C2A00F007172E0800F501F60171087004031980
:100C3A001F2E202E5E2EF7010314F70D302E0130E1
:100C4A000310F00DF10DFF3E031D252E0130F400B7
:100C5A007408F707302EF11F332E342E242E362E29
:100C6A00362E01300310F50DF60DFF3E031D372E0B
:100C7A0071087302031D432E70087202031C462E6C
:100C8A00472E4F2E7008F2027108031CF303F30279
:100C9A0075144F2E01300310F10CF00CFF3E031DAA
:100CAA00502E0130F702031D5B2E5C2E362E5E2E6F
:100CBA005E2E7608F101F1077508F001F007652E3E
:100CCA000800F030831603138600DB3085008701A5
:100CDA0001300A128A110A250A128A1102300A12EE
:100CEA008A110A250A128A1106300A128A110A255D
:100CFA000A128A110C300A128A110A250A128A115A
:100D0A0038300A128A110A250A128A11813083128E
:100D1A0003139F004430831603139F0083120313A7
:100D2A0006140A128A11D9240A128A1100300A12E8
:100D3A008A11ED240A128A1183120313A5010314DE
:100D4A00A50D05158512A92E83120313861AAE2E38
:100D5A00AF2EB52EA5010314A50D85120515C02EBB
:100D6A00061AB82EB92EC02E0230FC007C08A50047
:100D7A0005118516C02E2508013A031DC52EC62E5B
:100D8A00F22E00300A128A11ED240A128A11013059
:100D9A000A128A117D250A128A1100300A128A1152
:100DAA0056250A128A11FC007C0883120313A40038
:100DBA0014300A128A11ED240A128A1183120313BB
:100DCA002408FC00FD017C08F9007D08FA000A12DB
:100DDA008A112C270A128A11A92E831203132508B5
:100DEA00023A031DF92EFA2EA92E00300A128A1190
:100DFA00ED240A128A1112300A128A117D250A126A
:100E0A008A1101300A128A1156250A128A11FC0027
:100E1A007C0883120313A40014300A128A11ED24E9
:100E2A000A128A11831203132408FC00FD017C08AC
:100E3A00F9007D08FA000A128A112C270A128A116F
:100E4A00A92EA92EA92EA92E0A128A11002810301D
:100E5A00F0002730F1007A08F301F3077908F2016C
:100E6A00F2070A128A1118260A128A117008FB0060
:100E7A007B0883120313A0001030F0002730F10022
:100E8A007A08F301F3077908F201F2070A128A11C4
:100E9A00D4250A128A117108FA01FA077008F901B1
:100EAA00F907E830F0000330F1007A08F301F3079C
:100EBA007908F201F2070A128A1118260A128A110F
:100ECA007008FB007B0883120313A100E830F000CE
:100EDA000330F1007A08F301F3077908F201F20707
:100EEA000A128A11D4250A128A117108FA01FA071C
:100EFA007008F901F9076430F0000030F1007A084F
:100F0A00F301F3077908F201F2070A128A11182687
:100F1A000A128A117008FB007B0883120313A200CD
:100F2A006430F0000030F1007A08F301F307790821
:100F3A00F201F2070A128A11D4250A128A117108DB
:100F4A00FA01FA077008F901F9070A30F0000030CF
:100F5A00F1007A08F301F3077908F201F2070A129D
:100F6A008A1118260A128A117008FB007B0883125C
:100F7A000313A3000A30F0000030F1007A08F301ED
:100F8A00F3077908F201F2070A128A11D4250A1224
:100F9A008A117108FA01FA077008F901F907831230
:100FAA0003132008303E0A128A1130250A128A11C8
:100FBA00831203132108303E0A128A1130250A12BD
:100FCA008A11831203132208303E0A128A1130252D
:100FDA000A128A11831203132308303E0A128A1155
:100FEA0030250A128A117908303E0A128A113025F0
:060FFA000A128A11080032
:02400E00323F3F
:00000001FF
