:100000000A128A11CF2C00308A000408840A820761
:1000100000344734613473342034533465346E34DF
:1000200073346F347234203420342034203420343C
:1000300020340034483475346D34693464346934A0
:10004000743479342034533465346E3473346F34FB
:060050007234203400347C
:10099E0083010A128A11662E01300A128A11042569
:1009AE000A128A110030F3000030F2000230F1001A
:1009BE005830F0000A128A11A2250A128A11080074
:1009CE00FA0010307A020318ED2CEE2CF62C7A0871
:1009DE00803E0A128A1104250A128A11032D7A0802
:1009EE00EC3EF9007908FA007A08C03E0A128A1124
:1009FE0004250A128A11032D0800F800831203132E
:100A0E00061186117808870086140030F300003036
:100A1E00F2000030F1003230F0000A128A11A225E5
:100A2E000A128A118312031386100030F30000306D
:100A3E00F2000030F1003230F0000A128A11A225C5
:100A4E000A128A110800F800831203130611861584
:100A5E007808870086140030F3000030F200003072
:100A6E00F1000A30F0000A128A11A2250A128A1128
:100A7E008312031386100030F3000030F2000030B2
:100A8E00F1000A30F0000A128A11A2250A128A1108
:100A9E000800F1005F2D831203139F121F129F1186
:100AAE00672D831203139F121F129F15672D672D3B
:100ABE007108003A0319522D013A0319582D672D6A
:100ACE00831203131F156B2D1F196E2D6F2D6B2D9A
:100ADE00702D1E08F0007008F2007208762D0800C6
:100AEE00FB000310003003180130FA008F2D7B0835
:100AFE0084000A128A1103200A128A110A128A111C
:100B0E002A250A128A110130F9007908FB078F2D68
:100B1E007B08031D932DA12D7B0884000A128A11D8
:100B2E0003200A128A110038031D9E2D9F2D7E2D43
:100B3E00A12DA12D08007308720471047004031D09
:100B4E00A92DAA2DAC2DD12DD12D0130F4000030C0
:100B5E00F5000030F6000030F7007408F00275085A
:100B6E00031C750FBB2DBC2DF1027608031C760FEE
:100B7E00C12DC22DF2027708031C770FC72DC82D89
:100B8E00F3027308720471047004031DCF2DD02D6F
:100B9E00AC2DD12D0800710870040319D72DD82D56
:100BAE000E2EF5010314F50DE82D01300310F00D96
:100BBE00F10DFF3E031DDD2D0130F4007408F50725
:100BCE00E82DF11FEB2DEC2DDC2DEE2DEE2D710809
:100BDE007302031DF42D70087202031CF72DF82DFD
:100BEE00FF2D7008F2027108031CF303F302FF2DB0
:100BFE0001300310F10CF00CFF3E031D002E0130EE
:100C0E00F502031D0B2E0C2EEE2D0E2E0E2E73083E
:100C1E00F101F1077208F001F007152E08000030FF
:100C2E00F5000030F6007108700403191F2E202EF7
:100C3E005E2EF7010314F70D302E01300310F00D68
:100C4E00F10DFF3E031D252E0130F4007408F70749
:100C5E00302EF11F332E342E242E362E362E01300A
:100C6E000310F50DF60DFF3E031D372E71087302AE
:100C7E00031D432E70087202031C462E472E4F2E64
:100C8E007008F2027108031CF303F30275144F2E61
:100C9E0001300310F10CF00CFF3E031D502E0130FD
:100CAE00F702031D5B2E5C2E362E5E2E5E2E760810
:100CBE00F101F1077508F001F007652E0800F0301C
:100CCE00831603138600DB308500870101300A127C
:100CDE008A1104250A128A1102300A128A11042579
:100CEE000A128A1106300A128A1104250A128A1172
:100CFE000C300A128A1104250A128A1138300A128F
:100D0E008A1104250A128A118130831203139F005F
:100D1E004430831603139F008312031306140A1222
:100D2E008A11D3240A128A1100300A128A11E7247A
:100D3E000A128A1183120313A5010314A50D0515BA
:100D4E008512A92E83120313861AAE2EAF2EB52E40
:100D5E00A5010314A50D85120515C02E061AB82E71
:100D6E00B92EC02E0230FC007C08A5000511851698
:100D7E00C02E2508013A031DC52EC62EF22E0030B8
:100D8E000A128A11E7240A128A1101300A128A11F4
:100D9E0077250A128A1100300A128A1150250A127A
:100DAE008A11FC007C0883120313A40014300A126B
:100DBE008A11E7240A128A11831203132408FC00F5
:100DCE00FD017C08F9007D08FA000A128A112C2711
:100DDE000A128A11A92E831203132508023A031D43
:100DEE00F92EFA2EA92E00300A128A11E7240A12C1
:100DFE008A1112300A128A1177250A128A110130CD
:100E0E000A128A1150250A128A11FC007C088312DC
:100E1E000313A40014300A128A11E7240A128A114D
:100E2E00831203132408FC00FD017C08F9007D08E1
:100E3E00FA000A128A112C270A128A11A92EA92E3B
:100E4E00A92EA92E0A128A1100281030F000273080
:100E5E00F1007A08F301F3077908F201F2070A129A
:100E6E008A1116260A128A117008FB007B0883125B
:100E7E000313A0001030F0002730F1007A08F301C0
:100E8E00F3077908F201F2070A128A11D2250A1223
:100E9E008A117108FA01FA077008F901F907E830AA
:100EAE00F0000330F1007A08F301F3077908F2013C
:100EBE00F2070A128A1116260A128A117008FB000E
:100ECE007B0883120313A100E830F0000330F10019
:100EDE007A08F301F3077908F201F2070A128A1170
:100EEE00D2250A128A117108FA01FA077008F9015F
:100EFE00F9076430F0000030F1007A08F301F307CF
:100F0E007908F201F2070A128A1116260A128A11BC
:100F1E007008FB007B0883120313A2006430F000FC
:100F2E000030F1007A08F301F3077908F201F207B5
:100F3E000A128A11D2250A128A117108FA01FA07C9
:100F4E007008F901F9070A30F0000030F1007A0854
:100F5E00F301F3077908F201F2070A128A11162635
:100F6E000A128A117008FB007B0883120313A30078
:100F7E000A30F0000030F1007A08F301F307790827
:100F8E00F201F2070A128A11D2250A128A11710889
:100F9E00FA01FA077008F901F90783120313200802
:100FAE00303E0A128A112A250A128A11831203135D
:100FBE002108303E0A128A112A250A128A1183123A
:100FCE0003132208303E0A128A112A250A128A11A8
:100FDE00831203132308303E0A128A112A250A129D
:100FEE008A117908303E0A128A112A250A128A11AC
:020FFE000800E9
:02400E00323F3F
:00000001FF
