:100000000A128A11FC2F00308A000408840A820731
:1000100000344734613473342034533465346E34DF
:1000200073346F347234203420342034203420343C
:1000300020340034483475346D34693464346934A0
:10004000743479342034533465346E3473346F34FB
:060050007234203400347C
:100A600001300A128A11BC250A128A110030F300E3
:100A70000030F2000230F1005830F0000A128A1102
:100A800099250800FA0010307A0203184D2D7A08D3
:100A9000803E0A128A11BC2508007A08EC3EF90053
:100AA0007908FA007A08C03E0A128A11BC250800AB
:100AB000FB00FA017B08031908007B0884000A1276
:100AC0008A1103200A128A110038031908007B08D2
:100AD00084000A128A1103200A128A110A128A114A
:100AE000E0250A128A110130F9007908FB075A2D16
:100AF000F100862D831203139F121F129F118E2D5A
:100B0000831203139F121F129F158E2D7108003A36
:100B100003197A2D013A0319802D8E2D83120313A8
:100B20001F151F19912D1E08F0007008F2007208A1
:100B3000080073087204710470040319080001307E
:100B4000F4000030F5000030F6000030F7007408C3
:100B5000F0027508031C750FAE2DAF2DF10276085B
:100B6000031C760FB42DB52DF2027708031C770F06
:100B7000BA2D992DF302992DF80083120313061153
:100B800086117808870086140030F3000030F200E8
:100B90000030F1003230F0000A128A1199250A1251
:100BA0008A118312031386100030F3000030F20024
:100BB0000030F1003230F0000A128A119925080045
:100BC000F80083120313061186157808870086142F
:100BD0000030F3000030F2000030F1000A30F00085
:100BE0000A128A1199250A128A1183120313861098
:100BF0000030F3000030F2000030F1000A30F00065
:100C00000A128A1199250800710870040319312EFF
:100C1000F501F50AF11B182E01300310F00DF10D4E
:100C2000FF3E031D0D2E0130F4007408F5070A2E57
:100C300071087302031D1E2E70087202031C262EFB
:100C40007008F2027108031CF303F3020130031071
:100C5000F10CF00CFF3E031D272E0130F502031DA1
:100C6000182E7308F101F1077208F001F00708006F
:100C7000F501F6017108700403196F2EF701F70AE8
:100C8000F11B4E2E01300310F00DF10DFF3E031D40
:100C9000432E0130F4007408F707402E0130031092
:100CA000F50DF60DFF3E031D4F2E71087302031D57
:100CB0005B2E70087202031C642E7008F202710829
:100CC000031CF303F302751401300310F10CF00C54
:100CD000FF3E031D652E0130F702031D4E2E7608E0
:100CE000F101F1077508F001F0070800F0308316F4
:100CF00003138600DB308500870101300A128A1158
:100D0000BC250A128A1102300A128A11BC250A1265
:100D10008A1106300A128A11BC250A128A110C3077
:100D20000A128A11BC250A128A1138300A128A1155
:100D3000BC250A128A118130831203139F004430AC
:100D4000831603139F008312031306140A128A11D9
:100D500030250A128A1100300A128A1142250A121D
:100D60008A1183120313A501A50A051585128312A2
:100D70000313861AC02EA501A50A85120515C82ED3
:100D8000061AC82E0230FC007C08A5000511851645
:100D90002508013A031DF82E00300A128A11422557
:100DA0000A128A1101300A128A1158250A128A1170
:100DB00000300A128A1178250A128A11FC007C0878
:100DC00083120313A40014300A128A1142250A1256
:100DD0008A11831203132408FC00FD017C08F9002A
:100DE0007D08FA000A128A112A270A128A11B72EE0
:100DF000831203132508023A031DB72E00300A128E
:100E00008A1142250A128A1112300A128A115825B3
:100E10000A128A1101300A128A1178250A128A11DF
:100E2000FC007C0883120313A40014300A128A11F8
:100E300042250A128A11831203132408FC00FD01C3
:100E40007C08F9007D08FA000A128A112A270A1282
:100E50008A11B72E1030F0002730F1007A08F30124
:100E6000F3077908F201F2070A128A1138260A12EA
:100E70008A117008FB007B0883120313A000103056
:100E8000F0002730F1007A08F301F3077908F20146
:100E9000F2070A128A1104260A128A117108FA014D
:100EA000FA077008F901F907E830F0000330F100A3
:100EB0007A08F301F3077908F201F2070A128A119E
:100EC00038260A128A117008FB007B08831203136C
:100ED000A100E830F0000330F1007A08F301F307D5
:100EE0007908F201F2070A128A1104260A128A11FD
:100EF0007108FA01FA077008F901F9076430F00087
:100F00000030F1007A08F301F3077908F201F207E3
:100F10000A128A1138260A128A117008FB007B080F
:100F200083120313A2006430F0000030F1007A084D
:100F3000F301F3077908F201F2070A128A11042675
:100F40000A128A117108FA01FA077008F901F90703
:100F50000A30F0000030F1007A08F301F307790855
:100F6000F201F2070A128A1138260A128A11700851
:100F7000FB007B0883120313A3000A30F00000304B
:100F8000F1007A08F301F3077908F201F2070A1277
:100F90008A1104260A128A117108FA01FA077008E8
:100FA000F901F907831203132008303E0A128A114F
:100FB000E0250A128A11831203132108303E0A1217
:100FC0008A11E0250A128A11831203132208303E87
:100FD0000A128A11E0250A128A11831203132308C8
:100FE000303E0A128A11E0250A128A117908303E31
:100FF0000A128A11E025080083010A128A11762E4E
:02400E0032FF7F
:00000001FF
